{
  "contractName": "FriendTokenPresale",
  "abi": [
    {
      "constant": true,
      "inputs": [],
      "name": "maxCap",
      "outputs": [
        {
          "name": "",
          "type": "uint256"
        }
      ],
      "payable": false,
      "stateMutability": "view",
      "type": "function"
    },
    {
      "constant": false,
      "inputs": [],
      "name": "unpause",
      "outputs": [],
      "payable": false,
      "stateMutability": "nonpayable",
      "type": "function"
    },
    {
      "constant": true,
      "inputs": [],
      "name": "weiRaised",
      "outputs": [
        {
          "name": "",
          "type": "uint256"
        }
      ],
      "payable": false,
      "stateMutability": "view",
      "type": "function"
    },
    {
      "constant": true,
      "inputs": [],
      "name": "wallet",
      "outputs": [
        {
          "name": "",
          "type": "address"
        }
      ],
      "payable": false,
      "stateMutability": "view",
      "type": "function"
    },
    {
      "constant": true,
      "inputs": [],
      "name": "paused",
      "outputs": [
        {
          "name": "",
          "type": "bool"
        }
      ],
      "payable": false,
      "stateMutability": "view",
      "type": "function"
    },
    {
      "constant": false,
      "inputs": [],
      "name": "pause",
      "outputs": [],
      "payable": false,
      "stateMutability": "nonpayable",
      "type": "function"
    },
    {
      "constant": true,
      "inputs": [],
      "name": "owner",
      "outputs": [
        {
          "name": "",
          "type": "address"
        }
      ],
      "payable": false,
      "stateMutability": "view",
      "type": "function"
    },
    {
      "constant": false,
      "inputs": [
        {
          "name": "newOwner",
          "type": "address"
        }
      ],
      "name": "transferOwnership",
      "outputs": [],
      "payable": false,
      "stateMutability": "nonpayable",
      "type": "function"
    },
    {
      "inputs": [
        {
          "name": "_weiRaised",
          "type": "uint256"
        },
        {
          "name": "_maxCap",
          "type": "uint256"
        },
        {
          "name": "_wallet",
          "type": "address"
        }
      ],
      "payable": false,
      "stateMutability": "nonpayable",
      "type": "constructor"
    },
    {
      "payable": true,
      "stateMutability": "payable",
      "type": "fallback"
    },
    {
      "anonymous": false,
      "inputs": [],
      "name": "Pause",
      "type": "event"
    },
    {
      "anonymous": false,
      "inputs": [],
      "name": "Unpause",
      "type": "event"
    },
    {
      "anonymous": false,
      "inputs": [
        {
          "indexed": true,
          "name": "previousOwner",
          "type": "address"
        },
        {
          "indexed": true,
          "name": "newOwner",
          "type": "address"
        }
      ],
      "name": "OwnershipTransferred",
      "type": "event"
    }
  ],
  "bytecode": "0x606060405260008060146101000a81548160ff021916908315150217905550341561002957600080fd5b60405160608061078283398101604052808051906020019091908051906020019091908051906020019091905050336000806101000a81548173ffffffffffffffffffffffffffffffffffffffff021916908373ffffffffffffffffffffffffffffffffffffffff16021790555081831015156100a557600080fd5b826002819055508160038190555080600160006101000a81548173ffffffffffffffffffffffffffffffffffffffff021916908373ffffffffffffffffffffffffffffffffffffffff1602179055506001600060146101000a81548160ff021916908315150217905550505050610661806101216000396000f30060606040526004361061008e576000357c0100000000000000000000000000000000000000000000000000000000900463ffffffff16806323548b8b1461014e5780633f4ba83a146101775780634042b66f1461018c578063521eb273146101b55780635c975abb1461020a5780638456cb59146102375780638da5cb5b1461024c578063f2fde38b146102a1575b600060149054906101000a900460ff161515156100aa57600080fd5b6003546100c2346002546102da90919063ffffffff16565b111515156100cf57600080fd5b6100e4346002546102da90919063ffffffff16565b600281905550600160009054906101000a900473ffffffffffffffffffffffffffffffffffffffff1673ffffffffffffffffffffffffffffffffffffffff166108fc349081150290604051600060405180830381858888f19350505050151561014c57600080fd5b005b341561015957600080fd5b6101616102f8565b6040518082815260200191505060405180910390f35b341561018257600080fd5b61018a6102fe565b005b341561019757600080fd5b61019f6103bc565b6040518082815260200191505060405180910390f35b34156101c057600080fd5b6101c86103c2565b604051808273ffffffffffffffffffffffffffffffffffffffff1673ffffffffffffffffffffffffffffffffffffffff16815260200191505060405180910390f35b341561021557600080fd5b61021d6103e8565b604051808215151515815260200191505060405180910390f35b341561024257600080fd5b61024a6103fb565b005b341561025757600080fd5b61025f6104bb565b604051808273ffffffffffffffffffffffffffffffffffffffff1673ffffffffffffffffffffffffffffffffffffffff16815260200191505060405180910390f35b34156102ac57600080fd5b6102d8600480803573ffffffffffffffffffffffffffffffffffffffff169060200190919050506104e0565b005b60008082840190508381101515156102ee57fe5b8091505092915050565b60035481565b6000809054906101000a900473ffffffffffffffffffffffffffffffffffffffff1673ffffffffffffffffffffffffffffffffffffffff163373ffffffffffffffffffffffffffffffffffffffff1614151561035957600080fd5b600060149054906101000a900460ff16151561037457600080fd5b60008060146101000a81548160ff0219169083151502179055507f7805862f689e2f13df9f062ff482ad3ad112aca9e0847911ed832e158c525b3360405160405180910390a1565b60025481565b600160009054906101000a900473ffffffffffffffffffffffffffffffffffffffff1681565b600060149054906101000a900460ff1681565b6000809054906101000a900473ffffffffffffffffffffffffffffffffffffffff1673ffffffffffffffffffffffffffffffffffffffff163373ffffffffffffffffffffffffffffffffffffffff1614151561045657600080fd5b600060149054906101000a900460ff1615151561047257600080fd5b6001600060146101000a81548160ff0219169083151502179055507f6985a02210a168e66602d3235cb6db0e70f92b3ba4d376a33c0f3d9434bff62560405160405180910390a1565b6000809054906101000a900473ffffffffffffffffffffffffffffffffffffffff1681565b6000809054906101000a900473ffffffffffffffffffffffffffffffffffffffff1673ffffffffffffffffffffffffffffffffffffffff163373ffffffffffffffffffffffffffffffffffffffff1614151561053b57600080fd5b600073ffffffffffffffffffffffffffffffffffffffff168173ffffffffffffffffffffffffffffffffffffffff161415151561057757600080fd5b8073ffffffffffffffffffffffffffffffffffffffff166000809054906101000a900473ffffffffffffffffffffffffffffffffffffffff1673ffffffffffffffffffffffffffffffffffffffff167f8be0079c531659141344cd1fd0a4f28419497f9722a3daafe3b4186f6b6457e060405160405180910390a3806000806101000a81548173ffffffffffffffffffffffffffffffffffffffff021916908373ffffffffffffffffffffffffffffffffffffffff160217905550505600a165627a7a72305820fa29188af855773e87caa0b7a82effa5fc27ff9f083db3c706d54da84e65f0c90029",
  "source": "pragma solidity ^0.4.15;\n\nimport \"zeppelin-solidity/contracts/ownership/Ownable.sol\";\nimport \"zeppelin-solidity/contracts/lifecycle/Pausable.sol\";\nimport \"zeppelin-solidity/contracts/math/SafeMath.sol\";\n\n/**\n * @title FriendToken-Presale\n * @dev Contract to raise a max amount of Ether before ICO/TGE\n *\n *  3333 ETH- 20% diccount in FriendToken\n * The token rate is XX FriendToken per Ether, if you send 10 Ethers you will\n * receive XXX Lifs after TGE ends\n * The contract is pausable and it starts in paused state\n  */\n\ncontract FriendTokenPresale is Ownable, Pausable {\n  using SafeMath for uint256;\n\n  // The address where all funds will be forwarded\n  address public wallet;\n\n  // The total amount of wei raised\n  uint256 public weiRaised;\n\n  // The maximun amount of wei to be raised\n  uint256 public maxCap;\n\n  /**\n     @dev Constructor. Creates the FriendTokenPresale contract\n     The contract can start with some wei already raised, it will\n     also have a maximun amount of wei to be raised and a wallet\n     address where all funds will be forwarded inmediatly.\n\n     @param _weiRaised see `weiRaised`\n     @param _maxCap see `maxCap`\n     @param _wallet see `wallet`\n   */\n  function FriendTokenPresale(uint256 _weiRaised, uint256 _maxCap, address _wallet) public {\n    require(_weiRaised < _maxCap);\n\n    weiRaised = _weiRaised;\n    maxCap = _maxCap;\n    wallet = _wallet;\n    paused = true;\n  }\n\n  /**\n     @dev Fallback function that will be executed every time the contract\n     receives ether, the contract will accept ethers when is not paused and\n     when the amount sent plus the wei raised is not higher than the max cap.\n\n     ONLY send from a ERC20 compatible wallet like myetherwallet.com\n   */\n  function () public whenNotPaused payable {\n    require(weiRaised.add(msg.value) <= maxCap);\n\n    weiRaised = weiRaised.add(msg.value);\n    wallet.transfer(msg.value);\n  }\n\n}\n",
  "sourcePath": "/home/frank/Blockchain/myzeppelin/contracts/FriendTokenPresale.sol",
  "compiler": {
    "name": "solc",
    "version": "0.4.18+commit.9cf6e910.Emscripten.clang"
  },
  "schemaVersion": "1.0.1",
  "updatedAt": "2018-01-18T17:04:42.636Z"
}