{
  "contractName": "Presale",
  "abi": [
    {
      "constant": true,
      "inputs": [],
      "name": "maxCap",
      "outputs": [
        {
          "name": "",
          "type": "uint256"
        }
      ],
      "payable": false,
      "stateMutability": "view",
      "type": "function"
    },
    {
      "constant": true,
      "inputs": [],
      "name": "rate",
      "outputs": [
        {
          "name": "",
          "type": "uint256"
        }
      ],
      "payable": false,
      "stateMutability": "view",
      "type": "function"
    },
    {
      "constant": false,
      "inputs": [],
      "name": "unpause",
      "outputs": [],
      "payable": false,
      "stateMutability": "nonpayable",
      "type": "function"
    },
    {
      "constant": true,
      "inputs": [],
      "name": "weiRaised",
      "outputs": [
        {
          "name": "",
          "type": "uint256"
        }
      ],
      "payable": false,
      "stateMutability": "view",
      "type": "function"
    },
    {
      "constant": true,
      "inputs": [],
      "name": "wallet",
      "outputs": [
        {
          "name": "",
          "type": "address"
        }
      ],
      "payable": false,
      "stateMutability": "view",
      "type": "function"
    },
    {
      "constant": true,
      "inputs": [],
      "name": "paused",
      "outputs": [
        {
          "name": "",
          "type": "bool"
        }
      ],
      "payable": false,
      "stateMutability": "view",
      "type": "function"
    },
    {
      "constant": false,
      "inputs": [
        {
          "name": "addressSender",
          "type": "address"
        },
        {
          "name": "weiSent",
          "type": "uint256"
        }
      ],
      "name": "addSender",
      "outputs": [],
      "payable": false,
      "stateMutability": "nonpayable",
      "type": "function"
    },
    {
      "constant": false,
      "inputs": [],
      "name": "pause",
      "outputs": [],
      "payable": false,
      "stateMutability": "nonpayable",
      "type": "function"
    },
    {
      "constant": true,
      "inputs": [],
      "name": "owner",
      "outputs": [
        {
          "name": "",
          "type": "address"
        }
      ],
      "payable": false,
      "stateMutability": "view",
      "type": "function"
    },
    {
      "constant": true,
      "inputs": [
        {
          "name": "",
          "type": "address"
        }
      ],
      "name": "senders",
      "outputs": [
        {
          "name": "",
          "type": "uint256"
        }
      ],
      "payable": false,
      "stateMutability": "view",
      "type": "function"
    },
    {
      "constant": true,
      "inputs": [],
      "name": "endTimestamp",
      "outputs": [
        {
          "name": "",
          "type": "uint256"
        }
      ],
      "payable": false,
      "stateMutability": "view",
      "type": "function"
    },
    {
      "constant": true,
      "inputs": [],
      "name": "startTimestamp",
      "outputs": [
        {
          "name": "",
          "type": "uint256"
        }
      ],
      "payable": false,
      "stateMutability": "view",
      "type": "function"
    },
    {
      "constant": false,
      "inputs": [
        {
          "name": "newOwner",
          "type": "address"
        }
      ],
      "name": "transferOwnership",
      "outputs": [],
      "payable": false,
      "stateMutability": "nonpayable",
      "type": "function"
    },
    {
      "inputs": [
        {
          "name": "_wallet",
          "type": "address"
        },
        {
          "name": "_weiRaised",
          "type": "uint256"
        },
        {
          "name": "_maxCap",
          "type": "uint256"
        },
        {
          "name": "_startTimestamp",
          "type": "uint256"
        },
        {
          "name": "_endTimestamp",
          "type": "uint256"
        },
        {
          "name": "_rate",
          "type": "uint256"
        }
      ],
      "payable": false,
      "stateMutability": "nonpayable",
      "type": "constructor"
    },
    {
      "payable": true,
      "stateMutability": "payable",
      "type": "fallback"
    },
    {
      "anonymous": false,
      "inputs": [
        {
          "indexed": false,
          "name": "sender",
          "type": "address"
        },
        {
          "indexed": false,
          "name": "weiAmount",
          "type": "uint256"
        },
        {
          "indexed": false,
          "name": "rate",
          "type": "uint256"
        }
      ],
      "name": "TokenPresalePurchase",
      "type": "event"
    },
    {
      "anonymous": false,
      "inputs": [],
      "name": "Pause",
      "type": "event"
    },
    {
      "anonymous": false,
      "inputs": [],
      "name": "Unpause",
      "type": "event"
    },
    {
      "anonymous": false,
      "inputs": [
        {
          "indexed": true,
          "name": "previousOwner",
          "type": "address"
        },
        {
          "indexed": true,
          "name": "newOwner",
          "type": "address"
        }
      ],
      "name": "OwnershipTransferred",
      "type": "event"
    }
  ],
  "bytecode": "0x606060405260008060146101000a81548160ff021916908315150217905550341561002957600080fd5b60405160c080610a8c83398101604052808051906020019091908051906020019091908051906020019091908051906020019091908051906020019091908051906020019091905050336000806101000a81548173ffffffffffffffffffffffffffffffffffffffff021916908373ffffffffffffffffffffffffffffffffffffffff16021790555083851015156100c057600080fd5b42831115156100ce57600080fd5b81831015156100dc57600080fd5b6000811115156100eb57600080fd5b85600160006101000a81548173ffffffffffffffffffffffffffffffffffffffff021916908373ffffffffffffffffffffffffffffffffffffffff16021790555084600281905550836003819055508260048190555081600581905550806006819055506001600060146101000a81548160ff02191690831515021790555050505050505061090d8061017f6000396000f3006060604052600436106100c5576000357c0100000000000000000000000000000000000000000000000000000000900463ffffffff16806323548b8b146101ae5780632c4e722e146101d75780633f4ba83a146102005780634042b66f14610215578063521eb2731461023e5780635c975abb146102935780638218c76a146102c05780638456cb59146103025780638da5cb5b14610317578063982fb9d81461036c578063a85adeab146103b9578063e6fd48bc146103e2578063f2fde38b1461040b575b600060149054906101000a900460ff161515156100e157600080fd5b600554421015156100f157600080fd5b60003411151561010057600080fd5b6003546101183460025461044490919063ffffffff16565b1115151561012557600080fd5b600160009054906101000a900473ffffffffffffffffffffffffffffffffffffffff1673ffffffffffffffffffffffffffffffffffffffff166108fc349081150290604051600060405180830381858888f19350505050151561018757600080fd5b61019c3460025461044490919063ffffffff16565b6002819055506101ac3334610462565b005b34156101b957600080fd5b6101c161057a565b6040518082815260200191505060405180910390f35b34156101e257600080fd5b6101ea610580565b6040518082815260200191505060405180910390f35b341561020b57600080fd5b610213610586565b005b341561022057600080fd5b610228610644565b6040518082815260200191505060405180910390f35b341561024957600080fd5b61025161064a565b604051808273ffffffffffffffffffffffffffffffffffffffff1673ffffffffffffffffffffffffffffffffffffffff16815260200191505060405180910390f35b341561029e57600080fd5b6102a6610670565b604051808215151515815260200191505060405180910390f35b34156102cb57600080fd5b610300600480803573ffffffffffffffffffffffffffffffffffffffff16906020019091908035906020019091905050610462565b005b341561030d57600080fd5b610315610683565b005b341561032257600080fd5b61032a610743565b604051808273ffffffffffffffffffffffffffffffffffffffff1673ffffffffffffffffffffffffffffffffffffffff16815260200191505060405180910390f35b341561037757600080fd5b6103a3600480803573ffffffffffffffffffffffffffffffffffffffff16906020019091905050610768565b6040518082815260200191505060405180910390f35b34156103c457600080fd5b6103cc610780565b6040518082815260200191505060405180910390f35b34156103ed57600080fd5b6103f5610786565b6040518082815260200191505060405180910390f35b341561041657600080fd5b610442600480803573ffffffffffffffffffffffffffffffffffffffff1690602001909190505061078c565b005b600080828401905083811015151561045857fe5b8091505092915050565b6000809054906101000a900473ffffffffffffffffffffffffffffffffffffffff1673ffffffffffffffffffffffffffffffffffffffff163373ffffffffffffffffffffffffffffffffffffffff161415156104bd57600080fd5b80600760008473ffffffffffffffffffffffffffffffffffffffff1673ffffffffffffffffffffffffffffffffffffffff168152602001908152602001600020819055507f1dfc91d43d5ff31fe87a6c24f7139daad375b36cfd7d3c0dbf3d3cdebd7025dc8282600654604051808473ffffffffffffffffffffffffffffffffffffffff1673ffffffffffffffffffffffffffffffffffffffff168152602001838152602001828152602001935050505060405180910390a15050565b60035481565b60065481565b6000809054906101000a900473ffffffffffffffffffffffffffffffffffffffff1673ffffffffffffffffffffffffffffffffffffffff163373ffffffffffffffffffffffffffffffffffffffff161415156105e157600080fd5b600060149054906101000a900460ff1615156105fc57600080fd5b60008060146101000a81548160ff0219169083151502179055507f7805862f689e2f13df9f062ff482ad3ad112aca9e0847911ed832e158c525b3360405160405180910390a1565b60025481565b600160009054906101000a900473ffffffffffffffffffffffffffffffffffffffff1681565b600060149054906101000a900460ff1681565b6000809054906101000a900473ffffffffffffffffffffffffffffffffffffffff1673ffffffffffffffffffffffffffffffffffffffff163373ffffffffffffffffffffffffffffffffffffffff161415156106de57600080fd5b600060149054906101000a900460ff161515156106fa57600080fd5b6001600060146101000a81548160ff0219169083151502179055507f6985a02210a168e66602d3235cb6db0e70f92b3ba4d376a33c0f3d9434bff62560405160405180910390a1565b6000809054906101000a900473ffffffffffffffffffffffffffffffffffffffff1681565b60076020528060005260406000206000915090505481565b60055481565b60045481565b6000809054906101000a900473ffffffffffffffffffffffffffffffffffffffff1673ffffffffffffffffffffffffffffffffffffffff163373ffffffffffffffffffffffffffffffffffffffff161415156107e757600080fd5b600073ffffffffffffffffffffffffffffffffffffffff168173ffffffffffffffffffffffffffffffffffffffff161415151561082357600080fd5b8073ffffffffffffffffffffffffffffffffffffffff166000809054906101000a900473ffffffffffffffffffffffffffffffffffffffff1673ffffffffffffffffffffffffffffffffffffffff167f8be0079c531659141344cd1fd0a4f28419497f9722a3daafe3b4186f6b6457e060405160405180910390a3806000806101000a81548173ffffffffffffffffffffffffffffffffffffffff021916908373ffffffffffffffffffffffffffffffffffffffff160217905550505600a165627a7a723058207dc3a194bf67bdaa6ca0333823ace6cf6d36c8ea0739529b5cc05992f0bad70c0029",
  "source": "pragma solidity ^0.4.15;\n\nimport \"zeppelin-solidity/contracts/ownership/Ownable.sol\";\nimport \"zeppelin-solidity/contracts/lifecycle/Pausable.sol\";\nimport \"zeppelin-solidity/contracts/math/SafeMath.sol\";\n\n/**\n * @title Presale\n * @dev Contract to raise a max amount of Ether before ICO/TGE\n * The token rate is XX Tokens generate per Ether, if you send 10 Ethers you will receive XX x10 Tokens after TGE ends The contract is pausable and it starts in paused state\n */\n\ncontract Presale is Ownable, Pausable {\n  using SafeMath for uint256;\n\n  // The address where all funds will be forwarded\n  address public wallet;\n\n  // The total amount of wei raised\n  uint256 public weiRaised;\n\n  // The maximun amount of wei to be raised\n  uint256 public maxCap;\n\n  // Beginning of the period where tokens can be purchased at `Presale` rate.\n  uint256 public startTimestamp;\n\n  // Marks the end of the Presale.\n  uint256 public endTimestamp;\n\n  // wei rate\n  uint256 public rate;\n\n  /**\n  * @dev Constructor. Creates the Presale contract\n  * The contract can start with some wei already raised, it will also have a maximun amount of wei to be raised and a wallet address where all funds will be forwarded inmediatly.\n  * @param _wallet see `wallet`\n  * @param _weiRaised see `weiRaised`\n  * @param _maxCap see `maxCap`\n  * @param _startTimestamp see `startTimestamp`\n  * @param _endTimestamp see `endTimestamp`\n  * @param _rate see `rate`\n  */\n\n  function Presale(address _wallet, uint256 _weiRaised, uint256 _maxCap, uint256 _startTimestamp, uint256 _endTimestamp, uint256 _rate) public {\n    require(_weiRaised < _maxCap);\n    require(_startTimestamp > block.timestamp);\n    require(_startTimestamp < _endTimestamp);\n    require(_rate > 0 );\n\n    wallet = _wallet;\n    weiRaised = _weiRaised;\n    maxCap = _maxCap;\n    startTimestamp = _startTimestamp;\n    endTimestamp = _endTimestamp;\n    rate = _rate;\n    paused = true;\n    }\n\n  /**\n  * @dev Fallback function that will be executed every time the contract receives ether, the contract will accept ethers when is not paused, when the amount sent plus the wei raised is not higher than the max cap and before the endTimestamp. ONLY send from a ERC20 compatible wallet like myetherwallet.com\n  */\n  function () public whenNotPaused payable {\n    require(block.timestamp < endTimestamp);\n    require(msg.value > 0);\n    require(weiRaised.add(msg.value) <= maxCap);\n\n    wallet.transfer(msg.value);\n    weiRaised = weiRaised.add(msg.value);\n\n    addSender(msg.sender, msg.value);\n    }\n\n  /**\n   * @dev Allows to add the address and the amount of wei sent by a contributor in the private presale. Can only be called by the owner.\n\n   * @param senders Address to which XToken will be sent\n   * @param weiSent Amount of wei contributed\n   */\n\n  // The_senders address and the wei_amount_sent\n  mapping(address => uint256 ) public senders;\n\n  function addSender( address addressSender, uint256 weiSent) public onlyOwner {\n    senders[addressSender] = weiSent;\n\n    TokenPresalePurchase( addressSender, weiSent, rate);\n    }\n\n  /**\n  * @dev Event triggered every time a presale purchase is done\n  */\n  event TokenPresalePurchase(address sender, uint256 weiAmount, uint256 rate);\n\n}\n",
  "sourcePath": "/home/frank/Blockchain/myzeppelin/contracts/Presale.sol",
  "compiler": {
    "name": "solc",
    "version": "0.4.18+commit.9cf6e910.Emscripten.clang"
  },
  "schemaVersion": "1.0.1",
  "updatedAt": "2018-01-19T18:47:26.715Z"
}