{
  "contractName": "Presale",
  "abi": [
    {
      "constant": true,
      "inputs": [],
      "name": "maxCap",
      "outputs": [
        {
          "name": "",
          "type": "uint256"
        }
      ],
      "payable": false,
      "stateMutability": "view",
      "type": "function"
    },
    {
      "constant": false,
      "inputs": [],
      "name": "unpause",
      "outputs": [],
      "payable": false,
      "stateMutability": "nonpayable",
      "type": "function"
    },
    {
      "constant": true,
      "inputs": [],
      "name": "weiRaised",
      "outputs": [
        {
          "name": "",
          "type": "uint256"
        }
      ],
      "payable": false,
      "stateMutability": "view",
      "type": "function"
    },
    {
      "constant": true,
      "inputs": [],
      "name": "wallet",
      "outputs": [
        {
          "name": "",
          "type": "address"
        }
      ],
      "payable": false,
      "stateMutability": "view",
      "type": "function"
    },
    {
      "constant": true,
      "inputs": [],
      "name": "paused",
      "outputs": [
        {
          "name": "",
          "type": "bool"
        }
      ],
      "payable": false,
      "stateMutability": "view",
      "type": "function"
    },
    {
      "constant": false,
      "inputs": [
        {
          "name": "addressSender",
          "type": "address"
        },
        {
          "name": "weiSent",
          "type": "uint256"
        }
      ],
      "name": "addSender",
      "outputs": [],
      "payable": false,
      "stateMutability": "nonpayable",
      "type": "function"
    },
    {
      "constant": false,
      "inputs": [],
      "name": "pause",
      "outputs": [],
      "payable": false,
      "stateMutability": "nonpayable",
      "type": "function"
    },
    {
      "constant": true,
      "inputs": [],
      "name": "owner",
      "outputs": [
        {
          "name": "",
          "type": "address"
        }
      ],
      "payable": false,
      "stateMutability": "view",
      "type": "function"
    },
    {
      "constant": true,
      "inputs": [
        {
          "name": "",
          "type": "address"
        }
      ],
      "name": "senders",
      "outputs": [
        {
          "name": "",
          "type": "uint256"
        }
      ],
      "payable": false,
      "stateMutability": "view",
      "type": "function"
    },
    {
      "constant": false,
      "inputs": [
        {
          "name": "newOwner",
          "type": "address"
        }
      ],
      "name": "transferOwnership",
      "outputs": [],
      "payable": false,
      "stateMutability": "nonpayable",
      "type": "function"
    },
    {
      "inputs": [
        {
          "name": "_weiRaised",
          "type": "uint256"
        },
        {
          "name": "_maxCap",
          "type": "uint256"
        },
        {
          "name": "_wallet",
          "type": "address"
        }
      ],
      "payable": false,
      "stateMutability": "nonpayable",
      "type": "constructor"
    },
    {
      "payable": true,
      "stateMutability": "payable",
      "type": "fallback"
    },
    {
      "anonymous": false,
      "inputs": [],
      "name": "Pause",
      "type": "event"
    },
    {
      "anonymous": false,
      "inputs": [],
      "name": "Unpause",
      "type": "event"
    },
    {
      "anonymous": false,
      "inputs": [
        {
          "indexed": true,
          "name": "previousOwner",
          "type": "address"
        },
        {
          "indexed": true,
          "name": "newOwner",
          "type": "address"
        }
      ],
      "name": "OwnershipTransferred",
      "type": "event"
    }
  ],
  "bytecode": "0x606060405260008060146101000a81548160ff021916908315150217905550341561002957600080fd5b6040516060806108f183398101604052808051906020019091908051906020019091908051906020019091905050336000806101000a81548173ffffffffffffffffffffffffffffffffffffffff021916908373ffffffffffffffffffffffffffffffffffffffff16021790555081831015156100a557600080fd5b826002819055508160038190555080600160006101000a81548173ffffffffffffffffffffffffffffffffffffffff021916908373ffffffffffffffffffffffffffffffffffffffff1602179055506001600060146101000a81548160ff0219169083151502179055505050506107d0806101216000396000f3006060604052600436106100a4576000357c0100000000000000000000000000000000000000000000000000000000900463ffffffff16806323548b8b146101645780633f4ba83a1461018d5780634042b66f146101a2578063521eb273146101cb5780635c975abb146102205780638218c76a1461024d5780638456cb591461028f5780638da5cb5b146102a4578063982fb9d8146102f9578063f2fde38b14610346575b600060149054906101000a900460ff161515156100c057600080fd5b6003546100d83460025461037f90919063ffffffff16565b111515156100e557600080fd5b6100fa3460025461037f90919063ffffffff16565b600281905550600160009054906101000a900473ffffffffffffffffffffffffffffffffffffffff1673ffffffffffffffffffffffffffffffffffffffff166108fc349081150290604051600060405180830381858888f19350505050151561016257600080fd5b005b341561016f57600080fd5b61017761039d565b6040518082815260200191505060405180910390f35b341561019857600080fd5b6101a06103a3565b005b34156101ad57600080fd5b6101b5610461565b6040518082815260200191505060405180910390f35b34156101d657600080fd5b6101de610467565b604051808273ffffffffffffffffffffffffffffffffffffffff1673ffffffffffffffffffffffffffffffffffffffff16815260200191505060405180910390f35b341561022b57600080fd5b61023361048d565b604051808215151515815260200191505060405180910390f35b341561025857600080fd5b61028d600480803573ffffffffffffffffffffffffffffffffffffffff169060200190919080359060200190919050506104a0565b005b341561029a57600080fd5b6102a2610552565b005b34156102af57600080fd5b6102b7610612565b604051808273ffffffffffffffffffffffffffffffffffffffff1673ffffffffffffffffffffffffffffffffffffffff16815260200191505060405180910390f35b341561030457600080fd5b610330600480803573ffffffffffffffffffffffffffffffffffffffff16906020019091905050610637565b6040518082815260200191505060405180910390f35b341561035157600080fd5b61037d600480803573ffffffffffffffffffffffffffffffffffffffff1690602001909190505061064f565b005b600080828401905083811015151561039357fe5b8091505092915050565b60035481565b6000809054906101000a900473ffffffffffffffffffffffffffffffffffffffff1673ffffffffffffffffffffffffffffffffffffffff163373ffffffffffffffffffffffffffffffffffffffff161415156103fe57600080fd5b600060149054906101000a900460ff16151561041957600080fd5b60008060146101000a81548160ff0219169083151502179055507f7805862f689e2f13df9f062ff482ad3ad112aca9e0847911ed832e158c525b3360405160405180910390a1565b60025481565b600160009054906101000a900473ffffffffffffffffffffffffffffffffffffffff1681565b600060149054906101000a900460ff1681565b6000809054906101000a900473ffffffffffffffffffffffffffffffffffffffff1673ffffffffffffffffffffffffffffffffffffffff163373ffffffffffffffffffffffffffffffffffffffff161415156104fb57600080fd5b60008111151561050a57600080fd5b80600460008473ffffffffffffffffffffffffffffffffffffffff1673ffffffffffffffffffffffffffffffffffffffff168152602001908152602001600020819055505050565b6000809054906101000a900473ffffffffffffffffffffffffffffffffffffffff1673ffffffffffffffffffffffffffffffffffffffff163373ffffffffffffffffffffffffffffffffffffffff161415156105ad57600080fd5b600060149054906101000a900460ff161515156105c957600080fd5b6001600060146101000a81548160ff0219169083151502179055507f6985a02210a168e66602d3235cb6db0e70f92b3ba4d376a33c0f3d9434bff62560405160405180910390a1565b6000809054906101000a900473ffffffffffffffffffffffffffffffffffffffff1681565b60046020528060005260406000206000915090505481565b6000809054906101000a900473ffffffffffffffffffffffffffffffffffffffff1673ffffffffffffffffffffffffffffffffffffffff163373ffffffffffffffffffffffffffffffffffffffff161415156106aa57600080fd5b600073ffffffffffffffffffffffffffffffffffffffff168173ffffffffffffffffffffffffffffffffffffffff16141515156106e657600080fd5b8073ffffffffffffffffffffffffffffffffffffffff166000809054906101000a900473ffffffffffffffffffffffffffffffffffffffff1673ffffffffffffffffffffffffffffffffffffffff167f8be0079c531659141344cd1fd0a4f28419497f9722a3daafe3b4186f6b6457e060405160405180910390a3806000806101000a81548173ffffffffffffffffffffffffffffffffffffffff021916908373ffffffffffffffffffffffffffffffffffffffff160217905550505600a165627a7a72305820f9517acba446c79d5793d2718ec54a2a7dc7e94d42e629ae5de010608911e9a30029",
  "source": "pragma solidity ^0.4.15;\n\nimport \"zeppelin-solidity/contracts/ownership/Ownable.sol\";\nimport \"zeppelin-solidity/contracts/lifecycle/Pausable.sol\";\nimport \"zeppelin-solidity/contracts/math/SafeMath.sol\";\n\n/**\n * @title Presale\n * @dev Contract to raise a max amount of Ether before ICO/TGE\n *\n * The token rate is XX Tokens generate per Ether, if you send 10 Ethers you\n * will receive XX x10 Tokens after TGE ends\n * The contract is pausable and it starts in paused state\n  */\n\ncontract Presale is Ownable, Pausable {\n  using SafeMath for uint256;\n\n  // The address where all funds will be forwarded\n  address public wallet;\n\n  // The total amount of wei raised\n  uint256 public weiRaised;\n\n  // The maximun amount of wei to be raised\n  uint256 public maxCap;\n\n  /**\n   @dev Constructor. Creates the Presale contract\n   The contract can start with some wei already raised, it will\n   also have a maximun amount of wei to be raised and a wallet\n   address where all funds will be forwarded inmediatly.\n\n   @param _weiRaised see `weiRaised`\n   @param _maxCap see `maxCap`\n   @param _wallet see `wallet`\n   */\n\n  function Presale(uint256 _weiRaised, uint256 _maxCap, address _wallet) public {\n   require(_weiRaised < _maxCap);\n\n   weiRaised = _weiRaised;\n   maxCap = _maxCap;\n   wallet = _wallet;\n   paused = true;\n   }\n\n  /**\n   @dev Fallback function that will be executed every time the contract\n   receives ether, the contract will accept ethers when is not paused and\n   when the amount sent plus the wei raised is not higher than the max cap.\n\n   ONLY send from a ERC20 compatible wallet like myetherwallet.com\n   */\n\n function () public whenNotPaused payable {\n   require(weiRaised.add(msg.value) <= maxCap);\n\n   weiRaised = weiRaised.add(msg.value);\n   wallet.transfer(msg.value);\n   }\n\n  /**\n   @dev Allows to add the address and the amount of wei sent by a contributor\n   in the private presale. Can only be called by the owner.\n\n   @param beneficiary Address to which Lif will be sent\n   @param weiSent Amount of wei contributed\n   @param rate Lif per ether rate at the moment of the contribution\n   */\n\n  // The_senders address and the wei_amount_sent\n\n  mapping(address => uint256 ) public senders;\n\n  function addSender( address addressSender, uint256 weiSent) public\n  onlyOwner {\n    require(weiSent > 0);\n    senders[addressSender] = weiSent;\n\n    }\n}\n",
  "sourcePath": "/home/frank/Blockchain/myzeppelin/contracts/Presale.sol",
  "compiler": {
    "name": "solc",
    "version": "0.4.18+commit.9cf6e910.Emscripten.clang"
  },
  "schemaVersion": "1.0.1",
  "updatedAt": "2018-01-19T00:36:46.359Z"
}